:100000000C94CA000C94F2000C94F2000C94F200D0
:100010000C94F2000C94F2000C94F2000C94F20098
:100020000C94F2000C94F2000C94F2000C94F20088
:100030000C94F2000C94F2000C94F2000C94F20078
:100040000C946B070C94F2000C94DB070C94B5072E
:100050000C94F2000C94F2000C94F2000C94F20058
:100060000C94F2000C94F2002D2D2D2D2D2D2D2D04
:100070002D2D2D2D2D2D2D2D2D2D2D2D2D2D2D2DB0
:100080002D2D2D2D2D2D2D2D2D2D2D2D2D2D2D2DA0
:100090002D2D2D2D2D2D2D2D005354415455533ADA
:1000A000204552524F522044455445435445440044
:1000B000526563656976657220436865636B737525
:1000C0006D206973206E6F7420657175616C20748A
:1000D0006F20302E205468657265666F72652C0043
:1000E0005354415455533A20414343455054454499
:1000F00000526563656976657220436865636B735A
:10010000756D20697320657175616C20746F203086
:100110002E205468657265666F72652C00524543E7
:100120004549564552205349444520434845434B91
:1001300053554D3A20200053454E444552205349D3
:10014000444520434845434B53554D3A2020003108
:100150003030313031303130313130303031313197
:1001600030303130313030313131303131303000B8
:100170003130303130313031303131303030313177
:100180003130303130313030313131303131303067
:100190000000630A11241FBECFEFD8E0DEBFCDBF41
:1001A00022E0A8E5B1E001C01D92A230B207E1F75C
:1001B00011E0A0E0B1E0E8EDF9E102C005900D9298
:1001C000A835B107D9F710E0CAECD0E004C02197F8
:1001D000FE010E94F90AC93CD107C9F70E940D0827
:1001E0000C94EA0C0C9400003FB7F89480915D01E8
:1001F00090915E01A0915F01B091600126B5A89B2E
:1002000005C02F3F19F00196A11DB11D3FBFBA2FA8
:10021000A92F982F8827BC01CD01620F711D811D68
:10022000911D42E0660F771F881F991F4A95D1F7ED
:100230000895AF92BF92CF92DF92EF92FF920F9309
:100240001F93CF93DF936C017B018B01040F151F6C
:10025000EB015E01AE18BF08C017D10759F06991D4
:10026000D601ED91FC910190F081E02DC601099538
:10027000892B79F7C501DF91CF911F910F91FF90E5
:10028000EF90DF90CF90BF90AF900895FC01538D19
:10029000448D252F30E0842F90E0821B930B541760
:1002A00010F0CF96089501970895FC01918D828DED
:1002B000981761F0A28DAE0FBF2FB11D5D968C9186
:1002C000928D9F5F9F73928F90E008958FEF9FEFC5
:1002D0000895FC01918D828D981731F0828DE80F81
:1002E000F11D858D90E008958FEF9FEF0895FC013B
:1002F000918D228D892F90E0805C9F4F821B910908
:100300008F739927089581E691E00E94770121E09B
:10031000892B09F420E0822F089580E090E0892B5A
:1003200029F00E94830181110C9400000895FC01C2
:10033000A48DA80FB92FB11DA35ABF4F2C91848D46
:1003400090E001968F739927848FA689B7892C93A3
:10035000A089B1898C91837080648C93938D848DF6
:10036000981306C00288F389E02D80818F7D8083F9
:100370000895EF92FF920F931F93CF93DF93EC01B9
:1003800081E0888F9B8D8C8D98131AC0E889F9893C
:10039000808185FF15C09FB7F894EE89FF8960833F
:1003A000E889F98980818370806480839FBF81E0C0
:1003B00090E0DF91CF911F910F91FF90EF90089502
:1003C000F62E0B8D10E00F5F1F4F0F731127E02EDD
:1003D0008C8D8E110CC00FB607FCFACFE889F98915
:1003E000808185FFF5CFCE010E949701F1CFEB8D83
:1003F000EC0FFD2FF11DE35AFF4FF0829FB7F894E9
:100400000B8FEA89FB8980818062CFCF0F931F9386
:10041000CF93DF938C01D0E0C0E0F801EC0FFD1F1B
:100420006491662341F081E691E00E94B901892B35
:1004300011F02196F2CFCE01DF91CF911F910F9154
:100440000895CF93DF93EC01888D8823B9F0AA89B2
:10045000BB89E889F9898C9185FD03C0808186FD7F
:100460000DC00FB607FCF7CF8C9185FFF2CF8081CE
:1004700085FFEDCFCE010E949701E9CFDF91CF91AB
:1004800008950F931F93CF93DF938B01EC01698144
:100490007A816115710551F0CE01F80109951816A0
:1004A000190624F00980DA81C02DF1CFCE01DF9149
:1004B000CF911F910F9108954F925F926F927F920B
:1004C0008F929F92AF92BF92CF92DF92EF92FF9264
:1004D0000F931F93CF93DF93FC012281338122304E
:1004E0003105F4F05B016C012C01F4E04F0E511C5E
:1004F0007201F701C081D1812097D1F3B501CE01FE
:100500000E9441024C01FC0101811281011511057B
:10051000C1F4E414F50461F7F60197838683148629
:10052000DF91CF911F910F91FF90EF90DF90CF90CF
:10053000BF90AF909F908F907F906F905F904F9003
:100540000895B501C8010E944102FC0161807280DA
:10055000F40112821182FC0112821182B801CE01D3
:10056000F5010995F701181619066CF0D183C083BF
:100570007E01FFEFEF1AFF0A89819A81009781F4CB
:100580001A8309831CC0118300837801FFEFEF1ADF
:10059000FF0AF801818192810097D1F08C01CE0190
:1005A000EC01DCCFEC0189819A810097D9F77A823E
:1005B00069827E01FFEFEF1AFF0A9BCF8C01F801E1
:1005C000818192810097D1F7728261827801F2CFA6
:1005D000D283C183E8CFCF93DF93EC01E881F98127
:1005E0000480F581E02DCE0109951816190644F412
:1005F000E881F9810288F389E02DCE010995EECFDB
:10060000DF91CF910895DC011496ED91FC9115973F
:100610001C968C911C978823B1F01A962D913C91D1
:100620001B97621773077CF01896ED91FC91199750
:10063000261737075CF43097C1F00180F281E02D76
:100640002F5F3F4FF5CF30E020E0F2CF261737077E
:1006500071F481E01C968C931C971B963C932E930F
:100660001A971996FC93EE931897CF010895F0E02E
:10067000E0E0FBCF6F927F928F929F92AF92BF92FA
:10068000CF92DF92EF92FF920F931F93CF93DF935E
:100690005C0190E080E0F12CE12C2FE1622E712CC6
:1006A000C92FD82F8E01085F1F4F6301CC1ADD0AB6
:1006B00088248394912CC017D107ACF0902F812F00
:1006C0000032110569F7C701DF91CF911F910F919A
:1006D000FF90EF90DF90CF90BF90AF909F908F9062
:1006E0007F906F900895B601C5010E940303FC013D
:1006F0002081289DC001299D900D1124E80EF91E2E
:10070000880C991C2196F1E0CF1AD108D4CFCF9351
:1007100077FD0EC0FC01228133816217730744F418
:10072000C42F0E940303FC01C08381E0CF91089590
:1007300080E0FCCF0E940303009719F0FC01808148
:10074000089580E00895AF92BF92CF92DF92EF922A
:10075000FF920F931F93CF93DF93EC0110E000E023
:10076000CC24C394D12CF12CE12CE881F9810480B4
:10077000F581E02DCE01099508171907ECF4E88101
:10078000F981A488B5880480F581E02DCE01099512
:100790000197BC01601B710BCE01F5010995F82F83
:1007A000FC9DC001FD9D900D1124E80EF91ECC0C9E
:1007B000DD1C0F5F1F4FD9CFC701DF91CF911F9174
:1007C0000F91FF90EF90DF90CF90BF90AF90089582
:1007D000FC011582148217821682138212821186FE
:1007E00010861386128614868AE091E091838083B6
:1007F0000895FC018281938108958F929F92AF9218
:10080000BF920F931F93CF93DF93CDB7DEB7A1971E
:100810000FB6F894DEBF0FBECDBF19A2423008F468
:100820004AE08E010F5D1F4F842E912CB12CA12C1C
:10083000A50194010E94D70AE62FB901CA01EA3046
:1008400044F5E05DD801EE938D01232B242B252B5D
:1008500079F790E080E0109769F0FD0101900020A9
:10086000E9F73197AF014A1B5B0BBD0181E691E0CF
:100870000E941901A1960FB6F894DEBF0FBECDBF3E
:10088000DF91CF911F910F91BF90AF909F908F906C
:100890000895E95CD7CF42E050E064E571E081E67D
:1008A00091E00C941901CF93DF930E940602EC01B2
:1008B0000E944B048C0F9D1FDF91CF910895DF9212
:1008C000EF92FF920F931F93CF93DF93EB01642F6F
:1008D000DC0112964D915C911397C417D5076CF00B
:1008E000ED91FC910084F185E02DDF91CF911F9176
:1008F0000F91FF90EF90DF900994209731F4ED91E4
:10090000FC910284F385E02DF0CFD62E8C0183E09C
:1009100090E00E94FF0A7C01FC0110821282118289
:10092000BE0161507109C8010E940303D701DC9226
:10093000FC012181328112963C932E931197F28211
:10094000E182D80112968D919C911397019613968E
:100950009C938E9312971C961C9281E0DF91CF910D
:100960001F910F91FF90EF90DF900895FF920F93EA
:100970001F93CF93DF93DC0112960D911C91139777
:100980000115110559F4ED91FC910084F185E02DDC
:10099000DF91CF911F910F91FF900994F62EEC01FA
:1009A00083E090E00E94FF0A2C813D81FC013283AC
:1009B0002183F0829D838C830F5F1F4F1B830A83EB
:1009C0001C8681E0DF91CF911F910F91FF900895D8
:1009D0001F93CF93DF93EC01162F83E090E00E94EA
:1009E000FF0AFC011282118210832C813D81232B8E
:1009F00089F0EE81FF81928381839F838E838A8138
:100A00009B8101969B838A831C8681E0DF91CF9135
:100A10001F9108959D838C83F0CFEF92FF920F93E7
:100A20001F93CF93DF93EC011D821C821F821E82D5
:100A30001B821A82198618861B861A861C868AE0F3
:100A400091E099838883FB0100811181E480F58026
:100A5000E00EF11EE016F10661F061E0F801808120
:100A6000803309F460E0CE010E94E8040F5F1F4F5D
:100A7000F1CFDF91CF911F910F91FF90EF900895EB
:100A80001F93CF93DF9377FD3EC0DC0112962D912B
:100A90003C91139762177307B4F56115710549F41A
:100AA000ED91FC910288F389E02DDF91CF911F91A8
:100AB0000994215031092617370731F4ED91FC9143
:100AC0000088F189E02DF1CFEC01615071090E949D
:100AD0000303DC011196ED91FC91129710812181A5
:100AE000328112963C932E931197CF010E949B0B5B
:100AF0008A819B8101979B838A831C86812FDF914A
:100B0000CF911F91089510E0F9CFEF92FF921F93BC
:100B1000CF93DF93FC016281738110E016161706F4
:100B2000DCF4EC01148661307105E9F06250710962
:100B30000E9403037C01FC0181819281FC011081F0
:100B40000E949B0BF70112821182FF82EE828A8142
:100B50009B8101979B838A83812FDF91CF911F9186
:100B6000FF90EF90089584819581FC0110810E948F
:100B70009B0B1D821C821F821E821B821A82ECCF5D
:100B8000EF92FF921F93CF93DF93DC0112962D918A
:100B90003C9113971216130634F521303105C1F03C
:100BA000EC018C819D81FC01E180F28010810E942A
:100BB0009B0BFD82EC828A819B8101979B838A83B8
:100BC0001C86812FDF91CF911F91FF90EF900895A8
:100BD000ED91FC910088F189E02DDF91CF911F917B
:100BE000FF90EF90099410E0ECCFCF93DF93EC01EE
:100BF00088E291E0998388838C819D81009741F000
:100C0000FC01218132813D832C830E949B0BF4CF18
:100C1000DF91CF910895CF93DF93EC010E94F5050A
:100C2000CE01DF91CF910C949B0BCF92DF92EF928C
:100C3000FF920F931F93CF93DF93CDB7DEB72D971E
:100C40000FB6F894DEBF0FBECDBF7C016B01DC0197
:100C5000ED91FC910688F789E02D099588E291E0F5
:100C60009A8389831E821D8218861F821C821B82A2
:100C70001A8619861C861B861D8610E000E01C144F
:100C80001D045CF46C2D6170CE0101960E94E80495
:100C9000D594C7940F5F1F4FF2CF0150110978F020
:100CA000D701ED91FC91C084D184B801CE010196A9
:100CB0000E949A03682FC701F6010995EECFCE0175
:100CC00001960E94EB02CE0101960E94F5052D9639
:100CD0000FB6F894DEBF0FBECDBFDF91CF911F914D
:100CE0000F91FF90EF90DF90CF9008958F929F9299
:100CF000AF92BF92CF92DF92EF92FF920F931F932A
:100D0000CF93DF93EC01E881F9810480F581E02D38
:100D100009955C0128E0A21AB108F12CE12C882485
:100D20008394912C10E000E06C01E9E0CE1AD10828
:100D3000EA14FB04ACF4B6016E197F09CE010E94DF
:100D40000303FC012081289DC001299D900D1124E1
:100D5000080F191F880C991CFFEFEF1AFF0AE8CF44
:100D60007501CC24C394D12CE881F9810480F581EC
:100D7000E02DCE010995E816F90604F5E881F98120
:100D80000480F581E02DCE010995BC016150710907
:100D90006E197F096A0D7B1DCE010E940303FC01C1
:100DA00020812C9DC0012D9D900D1124080F191F2D
:100DB000CC0CDD1CFFEFEF1AFF0AD6CFB801CE0135
:100DC0000E941506DF91CF911F910F91FF90EF9038
:100DD000DF90CF90BF90AF909F908F9008952AE0C2
:100DE00031E0FC01318320830C94F505CF93DF9330
:100DF000EC010E94EF06CE01DF91CF910C949B0B8A
:100E00000F931F93CF93DF938C01D0E0C0E0D80104
:100E1000ED91FC910480F581E02DC8010995C8177A
:100E2000D90774F4BE01C8010E940303FC0160816C
:100E300070E090E080E04AE00E94FD032196E7CF59
:100E4000DF91CF911F910F910C944B04EF92FF9281
:100E50000F931F93CF93DF93EC017B0119821882CC
:100E60001B821A821D821C82CB010E94970A8C0170
:100E7000BC016F5F7F4F90E080E00E94240C0097E0
:100E8000B9F0998388831B830A832C813D81232BAE
:100E900011F4FC0110821D830C83B70188819981B4
:100EA000DF91CF911F910F91FF90EF900C94900ADA
:100EB00088819981009711F00E949B0B19821882FA
:100EC0001D821C821B821A82DF91CF911F910F918C
:100ED000FF90EF9008951F920F920FB60F9211247A
:100EE0002F933F938F939F93AF93BF93809159011B
:100EF00090915A01A0915B01B0915C013091580131
:100F000023E0230F2D3758F50196A11DB11D209325
:100F100058018093590190935A01A0935B01B093BB
:100F20005C0180915D0190915E01A0915F01B091A3
:100F300060010196A11DB11D80935D0190935E013A
:100F4000A0935F01B0936001BF91AF919F918F918A
:100F50003F912F910F900FBE0F901F90189526E88C
:100F6000230F0296A11DB11DD2CF1F920F920FB673
:100F70000F9211242F933F934F935F936F937F931F
:100F80008F939F93AF93BF93EF93FF9381E691E08D
:100F90000E949701FF91EF91BF91AF919F918F9127
:100FA0007F916F915F914F913F912F910F900FBE65
:100FB0000F901F9018951F920F920FB60F92112449
:100FC0002F938F939F93EF93FF93E0917101F09193
:100FD00072018081E0917701F091780182FD1BC060
:100FE000908180917A018F5F8F7320917B018217AE
:100FF00041F0E0917A01F0E0EF59FE4F958F809338
:101000007A01FF91EF919F918F912F910F900FBED9
:101010000F901F9018958081F4CF789484B58260EA
:1010200084BD84B5816084BD85B5826085BD85B58C
:10103000816085BD80916E00816080936E0010920A
:101040008100809181008260809381008091810085
:101050008160809381008091800081608093800016
:101060008091B10084608093B1008091B000816074
:101070008093B00080917A00846080937A008091A0
:101080007A00826080937A0080917A0081608093F8
:101090007A0080917A00806880937A001092C10073
:1010A000E0917101F091720182E08083E0916D0125
:1010B000F0916E011082E0916F01F09170018FEC60
:1010C000808310927901E0917501F091760186E0BC
:1010D0008083E0917301F09174018081806180834D
:1010E000E0917301F0917401808188608083E091C8
:1010F0007301F0917401808180688083E0917301B5
:10110000F091740180818F7D808338E0232E312C13
:101110005524539440E0642E40E0742E86E090E025
:101120000E94FF0AEC0160E771E00E9426078DE053
:1011300090E00E94FF0A7C01BE010E940D052097ED
:1011400049F088819981009711F00E949B0BCE0194
:101150000E949B0BC7010E943A03EC018DE090E0D6
:101160000E94FF0A8C010E94E803BE01C8010E9490
:101170001506D801ED91FC910480F581E02DC801A0
:10118000099509971CF0C8010E947606D801ED91D7
:10119000FC910480F581E02DC8010995E8010897CC
:1011A0000CF04CC08DE090E00E94FF0AEC010E9420
:1011B000E803D12CC12CD801ED91FC910480F5817C
:1011C000E02DC8010995F101E81BF90BCE16DF06E9
:1011D00064F4E881F9810084F185E02D60E0CE01BE
:1011E0000995FFEFCF1ADF0AE6CFD12CC12CD80129
:1011F000ED91FC910480F581E02DC8010995C81698
:10120000D9068CF4E881F981A084B184B601C801C3
:101210000E940303FC016081CE01F5010995FFEFF7
:10122000CF1ADF0AE4CF0115110541F0D801ED9185
:10123000FC910280F381E02DC801099510E000E0E7
:10124000E881F9810480F581E02DCE010995081728
:10125000190794F4B801CE010E940303FC014081F8
:101260004525E881F9810484F585E02DB801CE019A
:1012700009950F5F1F4FE4CFE114F10441F0D7014E
:10128000ED91FC910280F381E02DC701099586E084
:1012900090E00E94FF0A6C016FE471E00E94260753
:1012A0008DE090E00E94FF0A8C01B6010E940D05BE
:1012B000C8010E943A037C01CE010E94A303880F5B
:1012C000991FE80EF91E8DE090E00E94FF0A8C0144
:1012D0000E94E803B701C8010E941506D801ED91EC
:1012E000FC910480F581E02DC801099509971CF057
:1012F000C8010E947606F12CE12CD801ED91FC91F9
:101300000480F581E02DC8010995E816F906A4F4DA
:10131000B701C8010E940303FC0140814525D801A3
:10132000ED91FC910484F585E02DB701C801099584
:10133000BFEFEB1AFB0AE1CFC114D10451F0F60163
:1013400080819181009711F00E949B0BC6010E9441
:101350009B0B87E391E00E940602CE010E940007EA
:101360008DE191E00E940602C8010E9400078DE015
:1013700090E00E94FF0A6C010E94E803CE010E94E7
:10138000A3037C01C8010E94A303B701680F791F62
:10139000C6010E941506209739F0E881F981028084
:1013A000F381E02DCE0109950115110541F0D80119
:1013B000ED91FC910280F381E02DC80109958DE04B
:1013C00090E00E94FF0AEC010E94E803F12CE12C5E
:1013D000D601ED91FC910480F581E02DC6010995BF
:1013E000E816F90694F4E881F98100851185B701C2
:1013F000C6010E940303FC0160816525CE01F8014E
:101400000995FFEFEF1AFF0AE3CFC114D10441F0B1
:10141000D601ED91FC910280F381E02DC601099582
:10142000CE010E94A303892B09F046C081EF90E012
:101430000E94530480EE90E00E945304209739F0FC
:10144000E881F9810280F381E02DCE01099588E6DB
:1014500090E00E9453040E94F4006B017C018CED2B
:10146000882E85E0982EA12CB12C0E94F4006C19D6
:101470007D098E099F09683E734081059105A8F397
:10148000B1E08B1A9108A108B108E8EECE0EE3E0B6
:10149000DE1EE11CF11C81149104A104B10429F7A2
:1014A0006114710409F43ACE0E948301882309F47F
:1014B00035CE0E94000032CE80EB90E00E945304B3
:1014C00089E990E0B9CFE1E6F1E01382128288EE7B
:1014D00093E0A0E0B0E084839583A683B78386E49D
:1014E00091E09183808385EC90E09587848784ECFC
:1014F00090E09787868780EC90E0918B808B81ECE1
:1015000090E0938B828B82EC90E0958B848B86ECC1
:1015100090E0978B868B118E128E138E148E089509
:10152000FB01DC0105900D920020E1F70895FC011C
:1015300005900020E9F7809590958E0F9F1F0895E4
:101540002F923F924F925F926F927F928F929F92D3
:10155000AF92BF92CF92DF92EF92FF920F931F93C1
:10156000CF93DF93CDB7DEB7CA1BDB0B0FB6F89472
:10157000DEBF0FBECDBF09942A88398848885F84B2
:101580006E847D848C849B84AA84B984C884DF8023
:10159000EE80FD800C811B81AA81B981CE0FD11D07
:1015A0000FB6F894DEBF0FBECDBFED010895A1E2E6
:1015B0001A2EAA1BBB1BFD010DC0AA1FBB1FEE1FCD
:1015C000FF1FA217B307E407F50720F0A21BB30B18
:1015D000E40BF50B661F771F881F991F1A9469F794
:1015E00060957095809590959B01AC01BD01CF01F0
:1015F0000895EE0FFF1F0590F491E02D09940F93CD
:101600001F93CF93DF938230910510F482E090E036
:10161000E0910002F091010230E020E0B0E0A0E0B3
:10162000309799F42115310509F44AC0281B390B6C
:1016300024303105D8F58A819B816115710589F1C6
:10164000FB0193838283FE0111C04081518102819D
:10165000138148175907E0F04817590799F4109774
:1016600061F012960C93129713961C933296CF0149
:10167000DF91CF911F910F91089500930002109375
:101680000102F4CF2115310551F04217530738F00C
:10169000A901DB019A01BD01DF01F801C1CFEF0112
:1016A000F9CF9093010280930002CDCFFE01E20FAB
:1016B000F31F819391932250310939832883D7CF27
:1016C0002091FE013091FF01232B41F42091020172
:1016D000309103013093FF012093FE01209100011E
:1016E000309101012115310541F42DB73EB74091EC
:1016F000040150910501241B350BE091FE01F0918E
:10170000FF01E217F307A0F42E1B3F0B2817390740
:1017100078F0AC014E5F5F4F2417350748F04E0F4D
:101720005F1F5093FF014093FE01819391939FCFE0
:10173000F0E0E0E09CCFCF93DF930097E9F0FC016D
:10174000329713821282A0910002B0910102ED0142
:1017500030E020E01097A1F420813181820F931FA7
:101760002091FE013091FF012817390709F061C06F
:10177000F093FF01E093FE01DF91CF910895EA011C
:10178000CE17DF07E8F54A815B819E0141155105BF
:10179000B1F7E901FB83EA8349915991C40FD51F41
:1017A000EC17FD0761F4808191810296840F951FEB
:1017B000E90199838883828193819B838A83F0E006
:1017C000E0E012968D919C9113970097B9F52D91B9
:1017D0003C911197CD010296820F931F2091FE013B
:1017E0003091FF012817390739F6309751F51092DB
:1017F000010210920002B093FF01A093FE01BCCF42
:10180000D383C28340815181840F951FC817D907A4
:1018100061F44E5F5F4F88819981480F591F518352
:1018200040838A819B81938382832115310509F04E
:10183000B0CFF0930102E09300029ECFFD01DC01E6
:10184000C0CF13821282D7CFB0E0A0E0EAE2FCE082
:101850000C94A20A8C01009751F4CB010E94FF0A5C
:101860008C01C801CDB7DEB7E0E10C94BE0AFC01E3
:10187000E60FF71F9C0122503109E217F30708F425
:101880009DC0D901CD91DC911197C617D70798F06B
:10189000C530D10530F3CE0104978617970708F3BA
:1018A000C61BD70B2297C193D1936D937C93CF0125
:1018B0000E949B0BD6CF5B01AC1ABD0A4C018C0E6B
:1018C0009D1EA0910002B0910102512C412CF12CDF
:1018D000E12C109731F58091FE019091FF01881560
:1018E000990509F05CC04616570608F058C080916B
:1018F000000190910101009741F48DB79EB740918E
:10190000040150910501841B950BE817F90708F0B5
:1019100055C0F093FF01E093FE01F90171836083EC
:10192000A0CF8D919C91119712966C90129713965F
:101930007C901397A815B90559F56C0142E0C40EC7
:10194000D11CCA14DB0420F1AC014A195B09DA018D
:101950001296159780F06282738251834083D90179
:101960006D937C93E114F10471F0D7011396FC930D
:10197000EE93129776CF22968C0F9D1FF9019183DB
:101980008083F301EFCFF0930102E093000269CF6F
:101990004816590608F42C017D01D3019ACFCB01DA
:1019A0000E94FF0A7C01009749F0AE01B8010E9435
:1019B000E10CC8010E949B0B870153CF10E000E0AF
:1019C00050CFFB01DC0102C001900D92415050400C
:0819D000D8F70895F894FFCF49
:1019D80000000202800000000000EF06F606F9038E
:1019E8005F04E804B604870340058505C0059A032B
:1019F800EB025C0200000000F5050B06F9035F042A
:101A0800E804B604870340058505C0059A03EB0280
:101A18005C0200000000B9011901460121027701AA
:081A2800550169010D0A0000DF
:00000001FF
